{
  "contractName": "Hello",
  "abi": [
    {
      "constant": true,
      "inputs": [],
      "name": "hi",
      "outputs": [
        {
          "name": "",
          "type": "string"
        }
      ],
      "payable": false,
      "stateMutability": "pure",
      "type": "function"
    }
  ],
  "bytecode": "0x608060405234801561001057600080fd5b5061013f806100206000396000f300608060405260043610610041576000357c0100000000000000000000000000000000000000000000000000000000900463ffffffff168063a99dca3f14610046575b600080fd5b34801561005257600080fd5b5061005b6100d6565b6040518080602001828103825283818151815260200191508051906020019080838360005b8381101561009b578082015181840152602081019050610080565b50505050905090810190601f1680156100c85780820380516001836020036101000a031916815260200191505b509250505060405180910390f35b60606040805190810160405280600781526020017f4869204b686f61000000000000000000000000000000000000000000000000008152509050905600a165627a7a723058200956bbb7a3c3ba75c115867b9235cbfd282bdd49cb4809aa39a68b1612eae1d60029",
  "source": "pragma solidity ^0.4.18;\n// We have to specify what version of compiler this code will compile with\ncontract Hello {\n  function hi() public pure returns (string) {\n    return (\"Hi Khoa\");\n  }\n}",
  "sourcePath": "D:\\ProjectBase\\Training\\Nodejs\\smart-contract\\real-project\\contracts\\hello.sol",
  "compiler": {
    "name": "solc",
    "version": "0.4.24+commit.e67f0147.Emscripten.clang"
  },
  "schemaVersion": "2.0.1",
  "updatedAt": "2018-11-05T10:39:45.519Z"
}